:020000041000EA
:1000000000B5324B212058609868022188439860DF
:10001000D860186158612E4B002199600221596106
:100020000121F02299502B49196001219960352056
:1000300000F044F80222904214D00621196600F024
:1000400034F8196E01211966002018661A6600F04E
:100050002CF8196E196E196E052000F02FF8012189
:100060000842F9D1002199601B49196000215960AB
:100070001A491B48016001219960EB211966A021F2
:10008000196600F012F800219960164914480160C1
:100090000121996001BC002800D000471248134993
:1000A000086003C880F30888084703B5996A0420EC
:1000B0000142FBD001200142F8D103BD02B5186610
:1000C0001866FFF7F2FF186E186E02BD00000240BE
:1000D000000000180000070000035F00212200005C
:1000E000F4000018222000A00001001008ED00E03C
:1000F00000000000000000000000000074B24E7A12
:1001000000080020851F0010770200100F02001069
:100110007702001077020010770200100000000044
:100120000000000000000000000000007702001046
:100130007702001000000000770200107702001024
:1001400029070010770200107702001077020010D4
:1001500077020010350700107702001077020010B8
:10016000770200107702001077020010770200106B
:1001700077020010790C001077020010770200104F
:10018000770200107702001077020010770200104B
:10019000770200107702001077020010770200103B
:1001A000770200107702001080B500F066F880BD7D
:1001B00080B500F06BF880BD40B584B002AE00960B
:1001C00000F0E0F8029A039B04B040BD0B461146D4
:1001D0001A4680B500F014FA80BDC0460A460021D8
:1001E00080B500F00DFA80BD884206D303B500F05B
:1001F00065F80EBC4243891A184701000020704779
:1002000003B500F004FA0EBC4243891A1847684649
:1002100000231B689D4601F0C1FD2846A04700F061
:100220005BFA69462439016002E080F30988FFE740
:100230004046494652465B460FB5F0B4EFF3148092
:100240000223584080F31488BFF36F8FF0BC0FBCBB
:100250008046894692469B4600BD404649465246E6
:100260005B460FB5F0B4684601F06EFD08B000BD06
:1002700003C885468F4620BFFDE710B500239A428C
:1002800003D0CC5CC4545B1CF9E710BD10B58142AF
:100290000AD28B18834207D9491E431E002A0CD06C
:1002A0008C5C9C54521EF9E70346002A05D00C785A
:1002B0001C705B1C491C521EF7E710BDF8B50C46BC
:1002C000054620260029374603D0204600F02BF8AB
:1002D0000746002D03D0284600F025F80646B81B37
:1002E0001F2801D90020F8BD01D12846F8BDF943E7
:1002F00089191F22131A2A469A40401CC540002023
:1003000000290DD0D30F6D00ED18EB431B1900D55C
:100310002D1B52001043DB0F491C02461846EFE725
:1003200051000843F8BD70B5010C4A424A41110121
:1003300010224A40D040FF22120202405342534151
:10034000DA0008235340D840F02303405C425C416C
:10035000A30004245C40E0400C2404406542654155
:100360006C00022526466E40F0402D1A40080126FA
:10037000F6430643701C28405118C918091908187B
:1003800070BDD4D4F0B587B0154606460C9C002944
:1003900018D00F46002D029501931CD0002B3DD0A4
:1003A00005461846FFF7BFFF06903846FFF7BBFF2C
:1003B0000699081A202865D3002C00D1AAE02560F0
:1003C0006760A7E0002B53D0002C00D1A2E00027EB
:1003D00081C4384609E1002B5DD0002E7CD05D1E23
:1003E0002B4200D086E0002C02D02946394003C4BD
:1003F0009D4369087E4A0A40A81A7E49820808403F
:100400000A408018010940187B4901407B48484355
:10041000000EC740002138460F46E6E006906B1EEE
:100420001D4239D1002C04D000211A4632402260EE
:100430006160012D069800D1D7E0AB4359086C4AA2
:100440000A40981A6B49820808400A40801801093E
:1004500040186949014069484843030E1F211A4664
:100460000A40D6409943780088403043DF40BCE0E2
:100470002946FFF723FF002C3AD000224543711B89
:1004800006C435E00094411C0023202915D1202109
:1004900028461D466CE0A8E02846FFF744FF0546C5
:1004A0003846FFF740FF291A213100252029009402
:1004B00033D1202106982B465AE03246CA401C46CA
:1004C0001F23181A3B4683401343CF4086403D46C6
:1004D00037461E4623464DE0384619461D46FFF76F
:1004E000EDFE002C04D000224543791B22606160A0
:1004F00000277AE006901846FFF715FF05463846B4
:10050000FFF711FF2D1A1F2D15D3002C02D00698CE
:10051000206055E70020074667E01F291AD83046BB
:100520003346CB402022521A3E4696401E43CF40CF
:1005300090402B460CE00094691C30463246CA407D
:100540001F235B1B3E469E401643CF40984000232E
:100550003D460EE00846203834463246C24040232D
:100560005B1A3E469E401643C7409C402346304699
:100570003E46074600200690002925D003930591AA
:10058000F10F6A0051180497FA0F7500AA18029E1D
:10059000931B0C46019DAC41CF43D04380196F4162
:1005A00000D40C46002F1E4600D41646F80F039ABE
:1005B0005100069B0B43D10F049A5200571805991E
:1005C000491E06902546D7E70022D143481C5241D8
:1005D000D90F11407A008F185A000099002901D0D4
:1005E0000E604D60069911430843394607B0F0BDCF
:1005F00055555555333333330F0F0F0F010101019B
:1006000000239A4202D0C1545B1CFAE77047B0B590
:10061000C41722464240C00F1018CD172A464A4040
:10062000C90F5118FFF74AFE65406840401BB0BD36
:10063000EFF3108172B6084A906C002808D0036866
:100640009364D36C834201D10023D36400220260FF
:1006500081F310887047C046280E0020EFF3108207
:1006600072B600280FD04368002B00D0196041609B
:10067000002908D000230B600368002B00D1016023
:1006800082F31088704701F04DF9D4D480B50D483D
:10069000406900280ED0416900290BD009680A4A38
:1006A000914209D10A490968090607D11030FFF7BC
:1006B000B8FD80BD01F036F9044800E00548182176
:1006C00001F04AFA280E002075F53BB88A26001082
:1006D00004ED00E0A226001080B5FFF7D7FF80BD33
:1006E000F8B517460D460646202000F065FE044684
:1006F000384600F061FE094901603918243921614A
:10070000606109D00E604D600548086205484830B8
:100710002146FFF7A3FFF8BD01F004F975F53BB8DA
:100720001B020010280E00200148012101607047C3
:1007300034400540F0B58BB00120870203904003A0
:1007400002901E4880690190C003049700D448E1DC
:10075000039840041A4908601A490E68F2B24D68BD
:10076000340CE0B2330ADBB27706BF0F03D02904A2
:10077000049F45D028E00B2B049F00D931E12D0CBC
:100780009B0002A7FB58049F9F46C046DF0700104E
:10079000AD080010E3090010B9080010E3090010CB
:1007A000C7080010EF080010C90700100F0900105B
:1007B0001509001095090010AB09001080001150B8
:1007C0005000115000001050FD4803998161FD4810
:1007D000001FC90301601121C902016001E1FE4847
:1007E000002141700170002A05D0FC4909780129D7
:1007F00001D10399017000950020FA490222D0E04E
:10080000A12A1AD1212B18D1F84842684021F64B71
:100810005A54194640311C790C711B7A4B7100787F
:100820008871100EC870100C8870100A4870002073
:100830000722134600F004FDD3E0212AC4D1232B64
:1008400000D1D5E1222B00D1B8E0202B00D0C8E0A8
:1008500009A800218171818009910398C003F64A9B
:1008600011680142FCD01068402111607A1E0240DC
:10087000412A00D3DCE1072A00D3072209ACF24960
:100880002046FFF791FCEC490868029A1043086083
:10089000086838430860EB49099848606279E84B7A
:1008A0001A720A9A1A71A2790A708BE0002800D095
:1008B0009EE1E348002104E0002800D098E1E048F0
:1008C0000399017094E100200090DD490D3102464A
:1008D000034600F02FFA03988007D8490860E149E1
:1008E000D64A1268024263D1491CF9D379E0310E2D
:1008F000012900D159E1032900D165E1022900D085
:1009000076E10095CF491C3100204B2256E1CC48BE
:10091000407841E0D20600D056E7CD4A121D0323AD
:10092000DB011524E40608942B24A4060794002474
:10093000382C53D01668002E0CD0022E0FD0032E68
:1009400011D0822E1CD0832E049F1FD10E191F465A
:10095000079D18E0029EBF4D665166590DE00E19C5
:100960001F46089D02E00E191F46079D2F43F760A2
:100970004026B84D66516659049F3E43665105E0D6
:100980000E191F46089D2F43B760049F083480331B
:10099000121DCDE7AA488078AC4908700095002068
:1009A0000122FF2300F0C6F91BE0A54988701FE172
:1009B0007F200440A1485038046012E0A049087329
:1009C000A04840683946B031884200D010E19C48C8
:1009D000007BC00700D00BE100F038FC984948705C
:1009E00006E10199C80600D48CE0954EB069012853
:1009F0001ADB376A874200D21AE1716A8F4200D946
:100A000016E10A1AF16909183C1A402C00DB40244F
:100A100000252846234600F063F9B0690019B84262
:100A200000D00546B561049F83487C300890834818
:100A30008068079000218C4A10294DD04800431C43
:100A400001201F2B069001D8984000E00020079B52
:100A500018423CD0CD00784C605940230595635135
:100A60007F1E0740412F00D3E2E0072900D9DDE0D7
:100A7000022915D10898002F12D004788023D55C64
:100A80008126965DAD1BEDB2802D06D0D55C6D1C28
:100A9000D554D35C7F251D405455401C7F1EEAE78A
:100AA000724B585C069C44405C544B424B410028BE
:100AB00000D1039B6048059C0019012B049F03D1C2
:100AC0000368029C2343036003683B430360089868
:100AD00080300890491CAFE700252E46102E0DD01F
:100AE0000798E840C00706D0072E00D99EE0062DE3
:100AF00001D100F02BFCAD1C761CEFE74F480799A5
:100B000081600199C8044ED50120C1044B4A11608F
:100B100080070068000F01283CD103980104106889
:100B20000007800FFBD052480368454A9362514B3F
:100B30001C68D4621D680C2425431D6003252E0308
:100B40000768B743029E37430760066808273743A4
:100B50001726B7430760394F2D0406682E430660F9
:100B6000FD6A02262E43FE62324A166804252E4391
:100B700016607C623C680C42FCD0092179622D4AE7
:100B80001168A94311602E4A916A0160D06A186009
:100B90003A46049F503A00201060274902980860A6
:100BA0000868384308600BB0F0BD26494B20C88365
:100BB0002B48086100950831002012221346F1E607
:100BC0005000115084001050032800D909E704A1F7
:100BD000085C40008744C046800A0020280E0020A0
:100BE0000F1A1E0C800A0020280E0020000800208A
:100BF00000F0C4F8F5E615490422CA70092088708F
:100C0000032048700A7000950020CAE612480C21A3
:100C10001A2402E0114804210A24224600F0BAF8FE
:100C2000009500200949FF232246BBE600F09EFD07
:100C300000F070FE800011508400105050001150E0
:100C4000280E00200008002000011050800A00201B
:100C5000142700108C001050FC26001008270010EC
:100C60008A2E0A0048F4FFFF800B0020700A002043
:100C70007C40014040C00140F8B50D2000070568E8
:100C8000F020684314490E1800273C461E2C20D043
:100C9000012D04D0002D1DD11049103101E00F4964
:100CA00040311C2038402206D20E920089180B6A6F
:100CB000C3400F21194008D0814008488150726814
:100CC000002A02D031682046904708363F1D641C38
:100CD000DCE7F8BD00F026FE68080020F040014087
:100CE000F8B51C467F2505401048475D01263B4668
:100CF00073404355944216D8402C224600D34022DC
:100D0000E8010B4BC0188030FFF752FA002F01D1D9
:100D1000B00201E0092080022043F1030143E80012
:100D2000034A8150F8BD00F0F5FDC046700A00206E
:100D300080001050B0B51C4604AB1D8895422B4670
:100D400000DB1346002D00D1134600280DD1412BA6
:100D500005DB084D4023AB611C3516C502E0054A92
:100D600000259561044A012515702246FFF7B8FF5A
:100D7000B0BDC046280E0020700A0020E0B500205B
:100D8000009003490D3102460346FFF7D3FF8CBDA7
:100D9000280E0020F0B585B004905248032302933A
:100DA00043700270002425468D4206DA04984357AA
:100DB000DFB2002B06D401267EE02E4623462546D0
:100DC00027467BE04B1BE0263E40C02E14D1012677
:100DD000022B70D304982B185B78C0201840802811
:100DE00069D13F200340F806400DC318802B3E4FC9
:100DF00062D302261F465FE0F0203840E02828D169
:100E00000126032B57D30498281803904078C02359
:100E10000190184080284ED1039880780340802BA1
:100E200049D103903807000C019B9B061B0D1B1832
:100E30001F20C00218401B27FF02B8423BD03F20B2
:100E4000039F0740DB19D80A274F35D01F46029E63
:100E500032E0F82038400126F0282CD1042B2AD388
:100E60000498281803904078C023019018408028E7
:100E700021D1039880780090184080281BD10398D6
:100E8000C0780340802B16D103463F2003400393D4
:100E90007807C00A019B9B069B0B1818009B9B06BA
:100EA0001B0D1818039BC31810481818000D0E4F7F
:100EB00002D104269EE70C4F76190123D8070DD0E6
:100EC0006B009D1C95420BD206484755DB1C934294
:100ED00006D205460020E854354665E705B0F0BD6A
:100EE00000F044FC800A0020FDFF00000000FFFF2E
:100EF00070B50446C0B21F2802D80125854000E025
:100F00000025224E35613560C8B2032810D8800014
:100F100001A108588746C046290F0010330F001062
:100F2000490F0010690F0010204600F031F8F560FD
:100F300070BD204600F02CF8204600F03FF8016814
:100F400004229143016009E0204600F021F8204688
:100F500000F034F8016804220A430260204600F0E1
:100F60002DF8016808220EE0204600F011F8204616
:100F700000F024F8016808220A430260204600F0CD
:100F80001DF8016804229143016070BD180000D073
:100F900010B5044600F012F8016840220A4380218F
:100FA0008A430260E0B21E2804D2C0000249052232
:100FB000425010BD00F0DAFB04400140C0B21D28D1
:100FC00003D8800002494018704700F0CFFBC046AC
:100FD00004C00140FEB5C6B2202E13D214460D4601
:100FE0000D2109070F68002A0DD0012F2DD81D2EC5
:100FF0002BD8F0217943164A5718F600B9194A68D8
:10100000002A11D0FEBD0024214600F027F8012F50
:101010001BD81D2E19D8F02078430D490818F1006F
:10102000445040184460FEBD091D02910121019108
:1010300000F014F8BD51029804600198400305497E
:101040000860054A10600860FEBD00F08FFBC046D6
:101050006808002000E100E080E200E0B0B50E4B3F
:101060000D2212071268012A04D0002A13D11A4651
:10107000103201E01A4640324407E50E0C24AC4021
:10108000C0B2C00880001C501358C90701D1A34347
:1010900000E023431350B0BDF040014003490A680B
:1010A00082430A608A680242FCD0704700C0004058
:1010B000F8B515460A4604461B491046FFF7FEF8E8
:1010C000002C2FD00646009521681848002909D524
:1010D00021683F220A40012A04D1A16801408E42C2
:1010E00000D1E16801256F0311498C4201D03846D7
:1010F00000E0401C0F490A6802430A60FFF7CEFF78
:101100002560A6606068212188436060206800280F
:10111000FCD500980004C019E0606068082188438D
:101120006060F8BD00F0FEFB001BB700FF0F000081
:101130000080024000C00040FEB5934279D81F46AF
:101140000E4605461002110E00233A46FFF734F80A
:10115000002D6AD02C68002C67D06168814233462C
:10116000029701D260602C682979FE273940042952
:1011700001900ED1012B0CD1002C56D021680322F6
:1011800091432160286800284FD08168C907FCD0AE
:101190001AE0002C49D00121C90222688A4322604A
:1011A0002879092843D881002348415800290BD0C9
:1011B0004069FFF783F83346401C002804D000BF85
:1011C00000BF00BF401EF8E7286800282DD0016846
:1011D000E02291430160297939402868042910D11F
:1011E0000028029C21D00168032291431943016029
:1011F0002868002819D00121994082680A42FCD051
:1012000002E00028029C10D00121C90202680A43B2
:1012100002602868002808D00199416028790928CF
:1012200005D8800004490C50FEBD00F07BFB00F0A7
:101230009DFA024800F0AEFC480A0020F426001097
:101240001CB500240094FFF775FD1CBD00F000F8EC
:101250001420008818210A8802499047024600207D
:101260000146904755420000FEB5002935D00C4696
:101270000A781B4908686778012500231F2F1E463E
:1012800001D82E46BE40096831404E1EB1411F2A8A
:1012900001D895402B4662689200034200D0921C10
:1012A000501860600F2101400E484056A168081890
:1012B000A060810700D0FEBD04280BD3C117890FA1
:1012C000401880100090206969460291019001A8A1
:1012D00000F0C0FC0020A060FEBD00F023FBC04673
:1012E000040000D044270010F8B5002919D08B78ED
:1012F00001201F2B02D802469A4000E000220A4B30
:101300001B681A420BD0887300220A7301AA10705E
:1013100048690392029002A800F09CFC8FBD0873FC
:101320008FBD00F0FFFAC046040000D0002808D0AE
:101330000549411811225201801800780978401A95
:10134000704700F0EFFAC04621020000B0B5EFF39D
:10135000108572B6154C2046FFF7E8FF000613D043
:101360001348215C491C2154225C205C07210A405F
:1013700044235A43A218126C402A15D8084043430C
:10138000E1180120402303E000210A460B460846ED
:10139000C00703D00320FFF753FF02E005480021F8
:1013A000017485F31088B0BD00F0B4FA040C00207D
:1013B00021020000280E0020F0B58BB0794D0028E6
:1013C00000D1E3E07146019177490968090600D030
:1013D000E5E0296D0026091829656B6D7341024609
:1013E000A96D491CA9656B65E86D7041E865696B7D
:1013F000029210460F3000090390012006900C461F
:10140000059630468C4200D08BE0C0B2002850D008
:10141000012800D0BEE0FEF720FF6869002807D051
:10142000EFF30880002800D16846614900F0B4F964
:1014300004946048604900F0AFF9002009900790DB
:101440000890EFF3108072B6A96C80F31088002921
:101450001ED0FFF7EDF8044600F0CEF808A82146AC
:10146000FFF7FCF8EDE70024AC73A86B84420FD2C1
:10147000A1082A6B515CA207520FD14003220A40F7
:10148000032A03D1204600F0EBF8A86B641CEDE7BB
:10149000A87B0128E7D0EFF3108072B6EFF310813C
:1014A00072B6AA6C81F31088002A04D080F31088E9
:1014B000C7E7012035E00999089AAA64E96480F336
:1014C0001088079CA86B844229D2A008296B0E5C67
:1014D000A3075B0F3246DA4003271740032F16D0CD
:1014E000022F0CD0012F18D1204600F047F9286EAA
:1014F0000021401C2866686E4841686605E0079830
:10150000C00708D0204600F039F9069804E002220E
:101510009A4096430E5400200790641CD2E70220A4
:10152000049CA96B00228C4201D1144609E0A30857
:10153000296BCB5C2646A407640FE340741C9B0711
:1015400002D00592696B5DE7059A521C0592039BD8
:101550009A42F7D16C63039AA01A5242012327469C
:10156000A418A5084E5DA407640FA34033434B5550
:10157000541C0223944222463C46F0D200010F49FB
:10158000451828460299FEF729FE00E00D35284649
:101590000BB0F0BD0A490D22019800F013F8034981
:1015A0001722F9E7280E002004ED00E07F27001045
:1015B0000008002000080020980E0020980E00204F
:1015C0009627001014460D46064608481821084F75
:1015D000B847301F00F0F8F806480221B8472846FF
:1015E0002146B84700F010F900F016F9AA270010BC
:1015F000AD170010C227001010B5104988421AD349
:101600000D4A146B844216D9401AC10806220A40BA
:101610008109615CD14089070DD0000900F010F804
:101620008108615C8207520FD14003220A40032ADD
:1016300001D000F015F810BD280E0020980E0020F3
:101640000649096B82088A5C83075B0FDA40032333
:101650001340401E022BF5D0401C7047280E00207E
:10166000F0B595B0044605A8001D3C21FEF7B6FD77
:101670003C48066B0594A008315CA207520F032476
:10168000234693400B43335401200290364B019480
:101690000298012861DB401E0F2860D8029080006C
:1016A00005A908588108715C8207520FD1400222B7
:1016B0000A4322400101032A00D1401CCF181D46D5
:1016C00003015A1A59191546B1420BD28208B35C6C
:1016D0008207520FD34023402A4610321031401C5B
:1016E000022BF0D0204B002DD2D03868984231D355
:1016F000B0422FD2C01AC10806220A408109715C8B
:10170000D140890726D00009FFF79AFF810804918C
:10171000715C039083075B0F0A46DA402240032A7C
:101720000CD09C400C43049834540298102807D1E4
:1017300001200C49887310200290019C0A4B09E09B
:101740000F28094B0BD8810005AA039C5450401C5C
:101750000290019C2D1F3F1DC5E715B0F0BD00F0A4
:1017600005F8C046280E0020980E00207046024959
:101770001222FFF727FFC046DB27001010B58108B3
:10178000044A126B535C8007400F03248440A34338
:10179000535410BD280E0020B0B50C460546A54296
:1017A00003D201CDFFF728FFF9E7B0BDB0B50C4675
:1017B0000546C8178443002C05D0287800F02EF881
:1017C000641E6D1CF7E7B0BDB0B5002814D0044608
:1017D000302000F023F8782000F020F80825002DB4
:1017E0000ED0200F0A2801D3573000E0303000F02F
:1017F00015F86D1E2401F2E702480321FFF7D6FF1A
:10180000B0BDC046FF27001080B50D2000F006F8DF
:101810000A2000F003F880BD30BFFDE7F8B50446AC
:10182000284F387B002849D0EFF3108572B6264840
:10183000FFF77CFDC0B2082837D00095224D28461E
:10184000FFF774FD00060CD111204001295C491CF2
:101850002954285C072101404420484328180021CE
:10186000016411204301E95C07221140442006462F
:101870004E43AE19366C402E0ED1E95C491CE9543A
:10188000E95CEB5C13404343EB1800261E641140F7
:1018900002464A43AA18166C402E10D24843281814
:1018A0008455016C491C0164009D387C012803D0DB
:1018B00001203874FFF74AFD85F31088F8BDFFF763
:1018C00055FFC046280E0020040C0020FEB51F4620
:1018D0001446551C9D4215D90190780000D1012075
:1018E000029107464000BD42FBD83846FFF764FD31
:1018F0000646002C04D0304601992246FEF754FCDF
:10190000029900E0064608783055304629463A46A6
:1019100003B0F0BD704602491222FFF753FEC046E5
:10192000ED270010704602491722FFF74BFEC04614
:10193000C4270010034A1368194650681368994277
:10194000FAD1704724400540F0B585B0C1680391D5
:1019500000294FD003460269D117501E04908A43D4
:10196000541E00210091CD4302930194A54241D021
:101970000498854240D06D1C19698D423CD21822D2
:101980006A43D86887189F42F0D0039989184A683B
:10199000002AEBD08E68002E30D03468002C2DD079
:1019A000E268BA4213460AD0002B0BD019461B68D6
:1019B000BB42F9D1002821D03868086002E0002835
:1019C0001CD03A68029BE2603168002916D0CA68D0
:1019D000002A019CCAD17268002A05D08A69002AAF
:1019E00005D003220A72C1E70A7A042ABED0009AFF
:1019F0000A72BBE705B0F0BDFFF7B8FEFFF792FF34
:101A000070B58469002C17D00546026840695043C0
:101A1000EB691E1808463146FEF7C6FB29683046BA
:101A2000FEF7DCFBA869401EA86169686869401C74
:101A3000884200D100206861601E8441204670BD4C
:101A400010B5044642680020002A14D0A3699342CE
:101A500011D0226820695043E3691818FEF7A4FBEF
:101A6000A069401CA06161682069401C884200D1C7
:101A700000202061012010BDB0B5C568002D15D033
:101A80002968C1606968002910D0A868002806D0BC
:101A9000446848602846FFF757FF696800E04C68D3
:101AA00003484830FEF7DAFD2046B0BDFFF73AFFA5
:101AB000280E0020F8B5002822D00546EFF3108745
:101AC00072B6007A002402283BD30E46811E0229FA
:101AD00018D228463146FFF793FFC007E86820D0A8
:101AE00000280BD02846FFF7C7FF01462846FFF71E
:101AF000A7FFE868002801D103202872A8691CE02C
:101B0000002420E0042820D128463146FFF778FF42
:101B1000C0070124002814D129683046FEF75EFB77
:101B20000FE0002400280CD02846FFF7A5FF01464F
:101B30002A683046FEF738FBE868002800D12C728E
:101B4000012487F310882046F8BD0248152100F0D3
:101B500003F8C0466A2700100B46014670461A4635
:101B6000FFF730FD70B50C4605462020FFF724FC3A
:101B7000064628466043FFF71FFCF061356074603D
:101B8000304670BDFEF782FD014800F003F8C04604
:101B9000D429001004460D484069002801D1FFF700
:101BA000C1FE8069002806D0094901614461012114
:101BB0000173FEF75DFB07480721FFF7F7FD20469D
:101BC00000F00AF8FFF720FEFFF726FE280E00209F
:101BD000DC290010A327001080B502684168104678
:101BE000FFF7E4FD80BDD4D4F8B514460F46054692
:101BF000EFF3108672B6FFF75DFFC00702D086F3E1
:101C00001088F8BD002D1FD03A46114847690120C1
:101C10002872002F16D0314600267A60B860FE6028
:101C2000002C0FD0E86881C426606660A660E6607C
:101C3000083CEC6081F31088FEF728FD7E60BE60F2
:101C4000FE60F8BDFFF76EFE86F31088FFF79AFF7F
:101C5000280E0020FEB5EFF3108672B630C8002DB6
:101C600017D0002C40D0EFF3108772B6207A0428EA
:101C70003FD8C046784400794000874402110E02E4
:101C8000400020462946FFF7DBFEC00705D00320B1
:101C900027E02046FFF70EFF26E087F3108823E0B9
:101CA0000297E768002F22D03868E0607968002941
:101CB0001DD0B8684A680192002804D048603846B0
:101CC000FFF742FE7968029F11484830FEF7C6FCD4
:101CD000226801982946FEF767FAE068002801D1DA
:101CE0000020207287F3108886F31088FEBDFFF76E
:101CF00019FE87F3108807481521FFF72DFF87F39A
:101D0000108802481621FFF727FFC046542700100D
:101D1000280E00206A270010B0B5084C084D281B7B
:101D200040304121FEF7CAFA0146281A054A1063DD
:101D3000031B1B099363FEF751FAB0BD980E0020F8
:101D400000000420280E002080B5054949690029BB
:101D500002D0FFF751FC80BD0249FFF71DFD80BD99
:101D6000280E00200008002007480849884202D0B9
:101D7000002204C0FAE706480649074A904202D00A
:101D800008C908C0FAE7704768080020980E0020CC
:101D9000000800202C2A00106808002082B00446A9
:101DA0006048066860480D21FFF700FD01208702AA
:101DB00037405E4806D1401C844203D25C48102163
:101DC000FFF7F4FCF00703D05A481C21FFF7EEFCA4
:101DD000B00703D558481521FFF7E8FC300703D5B5
:101DE00056481B21FFF7E2FCF00603D554481921A1
:101DF000FFF7DCFCB00603D552482E21FFF7D6FCD6
:101E0000F00503D550481521FFF7D0FCB00503D5E8
:101E10004E481821FFF7CAFC002F03D04C481A2166
:101E2000FFF7C4FC300503D544481B21FFF7BEFC77
:101E3000F00403D542481921FFF7B8FCB00403D5DC
:101E400040482E21FFF7B2FCF00303D5414815218D
:101E5000FFF7ACFCB00303D53F481721FFF7A6FC02
:101E6000700303D53D482421FFF7A0FC300303D5C0
:101E70003B481C21FFF79AFCF00103D53948172194
:101E8000FFF794FCB00103D537480E21FFF78EFC15
:101E900001943648064203D135481221FFF786FCEB
:101EA0003006002501240028284602D51D48C568B3
:101EB0002046C00706D02F481421FFF777FC28469C
:101EC000FFF782FC300400250028284602D515487B
:101ED00005692046C00706D027481821FFF766FC91
:101EE0002846FFF771FC002F17D124480921FFF77E
:101EF0005DFC019C2046FFF767FC002C01D1FFF739
:101F000011FD183409498C4207D924681C48042162
:101F1000FFF74CFC2046FFF757FCFFF775FCFFF777
:101F20007BFCC04628ED00E007280010FFFFFF1FE4
:101F30003427001014280010302800108C280010BE
:101F4000A7280010C0280010452800105A280010AB
:101F500072280010EE280010032900101A29001022
:101F60003E2900105A290010712900103B3F0F0331
:101F70007F29001091290010A5290010BD2900100B
:101F800010270010FFF7F0FE00F000F8FFF7C4FE86
:101F90000348826803480021FEF7A2FB00F006F820
:101FA000202A0010A91F001000F05EF882B0002562
:101FB0002A4F2E46F86B002820D0FFF7BBFC0546C1
:101FC0000E46F96B002919D0BA6EF86E0195AC1A5D
:101FD0000096354685418E68CB68A41B9D410BD386
:101FE000B218BA664341FB660868F86300200860CF
:101FF00038464830FEF732FB019D009EFEF718FB85
:10200000002806D078610069FEF70FF9002078619A
:10201000D0E7F86B00281CD0B96EFA6E491BB241AC
:102020008368C468C8185441002102460A3A8C41AA
:10203000C0D30121084B59629A6A0A439A62084A3E
:1020400011609A691018186020BF19610548016075
:10205000B0E720BFAEE7C04610400540280E002084
:1020600000E100E080E100E000F002F800F05EFA3C
:10207000F0B58FB0544A1068544901431160544878
:10208000FFF70CF88320800052490860524F00256A
:10209000BD6455204101514801602F21C160016894
:1020A0004F4A0A43026041680029FCD5F8680121C3
:1020B00002918843F8607869C007FCD03868032132
:1020C00088433860B868C007FCD0464846490622B5
:1020D0000192FEF7EDFF4548454905263246FEF7D9
:1020E000E7FF04200490039703A80221414A424CD1
:1020F0001346A04738460C300590069605A83F4A7F
:1021000002991346A04738462430079007200890CC
:1021100007A83B4E294632463346A0473846303062
:10212000099008200A9009A8294632463346A0475C
:1021300038463C300B90092000900C900BA8314B96
:1021400029463246A04718370D9701980E900DA8E2
:1021500029462A4A1346A0472B48FEF79FFF0298BC
:102160000006194A116801431160FEF797FF2748DE
:10217000802D09D000214151421951608023D15056
:10218000803251600835F3E721480021416421493C
:102190000A68FF239A430A601F4920220A601F4BE6
:1021A0001A600A60009981620C21C16201460C39F3
:1021B000029A0A60510701601949416411040268DA
:1021C0000A4302600FB0F0BD00C00040BFCDFBFE6F
:1021D000FE7F3CFE2C8005403080004000400240E5
:1021E00000B0FA0000800240002F685900C0024091
:1021F00000389C1C001BB7003911001040597307B0
:10220000006CDC021BB70000FFFFFF010000105054
:102210004C00115004E400E000E100E080E200E046
:1022200010100100B0B500280ED0044640780025FB
:102230002946FEF75DFE00F05DF820782946FEF79E
:1022400057FE00F057F8B0BDFFF76CFBFEB5064631
:102250000020C9B20191184C184F082816D0002E42
:1022600027D002900298C0B20199C14001252940AF
:102270007078A047B84730782946A047B8473078EB
:102280000021A047B8470298401CE6E7002E10D076
:102290003078374600252946074CA047074EB047FF
:1022A00038780121A047B04738782946A047B04781
:1022B000FEBDFFF737FBC046F10E0010F5220010FF
:1022C000F8B5002810D0044640780021074EB047EA
:1022D000074FB847207801252946B047B8476078AE
:1022E0002946B047B847F8BDFFF71CFBF10E0010B8
:1022F000F5220010F8B5184C6569002D1ED000219C
:10230000C820A8600091E960FFF714FBE26B002A87
:1023100001D1A066E1663C342068002810D08368B3
:10232000C168AF68EA68FE1A16468E410AD3F81AE9
:10233000A8608A41EA602468002CEDD1FFF7F2FA28
:10234000009804E0DB1B83609141C1602068286035
:102350002560FEF79BF9F8BD280E0020F8B515465C
:102360000E460446FFF75EFF40212046FFF76EFF52
:102370002046FFF7A5FF2046FFF754FFC021204667
:10238000FFF764FFE8172F468743002F09D0002D81
:102390001AD031782046FFF759FF761C7F1E6D1E3C
:1023A000F3E72046FFF78CFF2046FFF73BFF002CAA
:1023B0000CD07720C043A17801432046FFF746FFA9
:1023C0002046FFF77DFFF8BDFFF7D0F9FFF7AAFA27
:1023D000F0B587B00F46019008B200280AD4B8B211
:1023E0002749FDF701FF02917D20C7000024264602
:1023F00025463CE006A9402008700020024603461E
:10240000FFF764FA04460E4615467D20C100784267
:1024100000B2FDF7F5FE0291642728E039B2029878
:1024200000B2884208DAB8B2012810D1029800043C
:102430000DD104A93F200CE0FEF7E9F800B20A2113
:10244000FDF7DEFE88B20F49085C05A901E003A98B
:1024500000200870204632462B46FFF737FA044624
:102460000E461546B8B20A21FDF728FF0746380484
:10247000D4D1019821463246FFF770FF07B0F0BD76
:1024800010270000EC29001088B0002A09D01C4653
:1024900015460E46074611883046FFF799FF002F74
:1024A00001D1FFF73FFA386901A902AAFFF79CFBA7
:1024B000002CF6D020780028F5D101982988091839
:1024C00029803046FFF784FFEDE7D4D488B0002898
:1024D00001D1FFF727FA0C460546114E686901AF96
:1024E00002AA3946FFF780FB38780128F6D1002C84
:1024F000EFD027780120784020700D213046FFF77B
:1025000055F92020FFF78AF9002F02D0052106484F
:1025100001E004210348FFF749F9FFF775F9DDE70A
:10252000132A00100C2700100228001090B002207F
:10253000444CA0470790444901800125089528464E
:10254000A0472746069005700026404A2846314697
:10255000904704461820B8470746042005900825F0
:1025600029460495394A9047029008983146374ADF
:10257000904737493980BD70032179600396BE606A
:10258000BE81BE73029A3A6178610725314A2846B6
:1025900002950E469047304A304B284639461D4634
:1025A0009847787831462B4A9047787839462A4AB6
:1025B000A847B8783146274A9047B878284A39461C
:1025C000A84730461F498847014601900298887005
:1025D0000B264E700A200870039D29461D4A90471D
:1025E000304629461B4A9047089A90021D490860C8
:1025F000D00208600A950AA9019D2846059AFFF7AE
:10260000ADFE04980F49884701460760069E466064
:10261000154842681548FEF763F8102009498847B5
:1026200001460760456007988860CE600E480268E2
:102630000F48FEF755F809A90AAA2046FFF7D4FA71
:10264000F9E7C046B9130010E7070000651B00104A
:1026500007060000F10E001069120010D50F0010DF
:10266000E9120010180000D0202A00107526001072
:102670007F260010026841681046FFF727FF0468B4
:10268000031D0ECB2046FFF7FFFE676F726F757458
:10269000696E6520737461636B206F766572666C1A
:1026A0006F77626C6F636B656420696E73696465D4
:1026B00020696E74657272757074636C6F636B20E1
:1026C0006672657175656E63792063616E6E6F7495
:1026D0002062652067726561746572207468616E3E
:1026E00020736F75726365206672657175656E63C0
:1026F00079D4D4D4BA260010370000005261737028
:1027000062657272792050695069636F7472756581
:102710002070633D00000000830000000200000004
:1027200082000000FF000000FF000000FF0000002A
:10273000FF000000737461636B206F766572666CD6
:102740006F773F2000FF0100010000FFFF00000144
:102750000001FF0073656E64206F6E20636C6F7301
:102760006564206368616E6E656C696E76616C6924
:1027700064206368616E6E656C2073746174656853
:1027800065617020616C6C6F6320696E20696E7486
:102790006572727570746F7574206F66206D656DEB
:1027A0006F727970616E69633A2070616E69633A25
:1027B0002072756E74696D65206572726F7220612A
:1027C00074203A206E696C20706F696E7465722097
:1027D00064657265666572656E6365696E64657869
:1027E000206F7574206F662072616E6765736C6907
:1027F0006365206F7574206F662072616E67656E09
:10280000696C66616C7365666174616C2065727277
:102810006F723A20696E737472756374696F6E209B
:102820006163636573732076696F6C6174696F6E41
:1028300064617461206163636573732076696F6C92
:102840006174696F6E696E737472756374696F6EAB
:1028500020627573206572726F72646174612062A8
:102860007573206572726F72202870726563697368
:1028700065296461746120627573206572726F727C
:102880002028696D707265636973652920776869AE
:102890006C6520756E737461636B696E6720657813
:1028A00063657074696F6E207768696C65207374F6
:1028B00061636B696E6720657863657074696F6EBC
:1028C00020647572696E6720666C6F6174696E67EB
:1028D0002D706F696E74206C617A792073746174E5
:1028E0006520707265736572766174696F6E756E5E
:1028F000646566696E656420696E7374727563746D
:10290000696F6E696C6C6567616C20757365206FAB
:1029100066207468652045505352696C6C65676128
:102920006C206C6F6164206F66204558435F524590
:102930005455524E20746F20746865205043636F65
:1029400070726F636573736F722061636365737315
:102950002076696F6C6174696F6E756E616C696702
:102960006E6564206D656D6F727920616363657358
:1029700073646976696465206279207A65726F751F
:102980006E6B6E6F776E2068617264206661756C25
:10299000742077697468206661756C742061646462
:1029A000726573732020776974682062757320667E
:1029B00061756C742061646472657373202077693B
:1029C00074682073703D756E726561636861626CD6
:1029D00065D4D4D4C62900100B00000051000000BB
:1029E000E4290010D5000000DC2900103F065B4FF1
:1029F000666D7D077F6F777C395E79713D76061E47
:102A0000763855543F7367506D783E1C2A766E5B5E
:102A100000406379656172206973207365743A20A0
:102A20000008000000080000000800000800000086
:102A300000C2010012010002EF02014086282D8031
:102A4000000101020301000009024B00020100A085
:102A500032080B0002020201000904000001020218
:102A600001000524001001052401000104240202D4
:102A70000524060001070581031000100904010068
:102A8000020A000000070502024000000705830259
:042A90004000000002
:00000001FF
